{
  "contractName": "KittyCoreExample",
  "abi": [
    {
      "constant": false,
      "inputs": [
        {
          "name": "_kittyId",
          "type": "uint256"
        },
        {
          "name": "_owner",
          "type": "address"
        }
      ],
      "name": "setOwnerOf",
      "outputs": [
        {
          "name": "success",
          "type": "bool"
        }
      ],
      "payable": false,
      "stateMutability": "nonpayable",
      "type": "function"
    },
    {
      "constant": true,
      "inputs": [
        {
          "name": "_kittyId",
          "type": "uint256"
        }
      ],
      "name": "ownerOf",
      "outputs": [
        {
          "name": "owner",
          "type": "address"
        }
      ],
      "payable": false,
      "stateMutability": "view",
      "type": "function"
    }
  ],
  "bytecode": "0x608060405234801561001057600080fd5b506101e8806100206000396000f30060806040526004361061004c576000357c0100000000000000000000000000000000000000000000000000000000900463ffffffff16806322e670b4146100515780636352211e146100b6575b600080fd5b34801561005d57600080fd5b5061009c60048036038101908080359060200190929190803573ffffffffffffffffffffffffffffffffffffffff169060200190929190505050610123565b604051808215151515815260200191505060405180910390f35b3480156100c257600080fd5b506100e160048036038101908080359060200190929190505050610180565b604051808273ffffffffffffffffffffffffffffffffffffffff1673ffffffffffffffffffffffffffffffffffffffff16815260200191505060405180910390f35b60008160008085815260200190815260200160002060006101000a81548173ffffffffffffffffffffffffffffffffffffffff021916908373ffffffffffffffffffffffffffffffffffffffff1602179055506001905092915050565b600080600083815260200190815260200160002060009054906101000a900473ffffffffffffffffffffffffffffffffffffffff1690509190505600a165627a7a72305820c914eaafa71bedd653cfa10cb89722f1cea7b0c2dee4da1a5e1f6cd12b2b579d0029",
  "source": "pragma solidity ^0.4.8;\n\ncontract KittyCoreExample {\n  mapping (uint256 => address) kittyOwners;\n\n  function setOwnerOf(uint256 _kittyId, address _owner) public returns (bool success) {\n    kittyOwners[_kittyId] = _owner;\n    return true;\n  }\n\n  function ownerOf(uint256 _kittyId) view public returns (address owner) {\n    return kittyOwners[_kittyId];\n  }\n}\n",
  "sourcePath": "/home/ubuntu/kitty-hats-contracts/contracts/KittyCoreExample.sol",
  "compiler": {
    "name": "solc",
    "version": "0.4.24+commit.e67f0147.Emscripten.clang"
  },
  "schemaVersion": "2.0.0",
  "updatedAt": "2018-06-27T22:31:21.760Z"
}